{
  "contractName": "QAirdrop",
  "abi": [
    {
      "inputs": [
        {
          "internalType": "uint256",
          "name": "_totalAmount",
          "type": "uint256"
        },
        {
          "internalType": "uint256",
          "name": "_closingTime",
          "type": "uint256"
        },
        {
          "internalType": "address",
          "name": "_airdropToken",
          "type": "address"
        }
      ],
      "stateMutability": "nonpayable",
      "type": "constructor"
    },
    {
      "inputs": [],
      "name": "closingTime",
      "outputs": [
        {
          "internalType": "uint256",
          "name": "",
          "type": "uint256"
        }
      ],
      "stateMutability": "view",
      "type": "function",
      "constant": true
    },
    {
      "inputs": [],
      "name": "totalAmount",
      "outputs": [
        {
          "internalType": "uint256",
          "name": "",
          "type": "uint256"
        }
      ],
      "stateMutability": "view",
      "type": "function",
      "constant": true
    },
    {
      "inputs": [
        {
          "internalType": "address",
          "name": "_address",
          "type": "address"
        }
      ],
      "name": "isSignee",
      "outputs": [
        {
          "internalType": "bool",
          "name": "",
          "type": "bool"
        },
        {
          "internalType": "uint256",
          "name": "",
          "type": "uint256"
        }
      ],
      "stateMutability": "view",
      "type": "function",
      "constant": true
    },
    {
      "inputs": [],
      "name": "totalSignees",
      "outputs": [
        {
          "internalType": "uint256",
          "name": "",
          "type": "uint256"
        }
      ],
      "stateMutability": "view",
      "type": "function",
      "constant": true
    },
    {
      "inputs": [],
      "name": "signUp",
      "outputs": [
        {
          "internalType": "bool",
          "name": "",
          "type": "bool"
        }
      ],
      "stateMutability": "nonpayable",
      "type": "function"
    },
    {
      "inputs": [],
      "name": "claim",
      "outputs": [],
      "stateMutability": "nonpayable",
      "type": "function"
    }
  ],
  "bytecode": "0x608060405234801561001057600080fd5b506040516106913803806106918339818101604052606081101561003357600080fd5b5080516020820151604090920151600191909155600291909155600380546001600160a01b0319166001600160a01b039092169190911790556106168061007b6000396000f3fe608060405234801561001057600080fd5b50600436106100625760003560e01c80630385b581146100675780631a39d8ef146100a85780634b6753bc146100c25780634e71d92d146100ca578063bc248170146100d4578063bf96ae63146100dc575b600080fd5b61008d6004803603602081101561007d57600080fd5b50356001600160a01b03166100f8565b60408051921515835260208301919091528051918290030190f35b6100b0610155565b60408051918252519081900360200190f35b6100b061015b565b6100d2610161565b005b6100b0610322565b6100e4610329565b604080519115158252519081900360200190f35b60008060005b600054811015610147576000818154811061011557fe5b6000918252602090912001546001600160a01b038581169116141561013f57600192509050610150565b6001016100fe565b50600080915091505b915091565b60015481565b60025481565b60025442116101af576040805162461bcd60e51b815260206004820152601560248201527420b4b9323937b81034b99039ba34b6361037b832b760591b604482015290519081900360640190fd5b60006101ba336100f8565b5090508061020f576040805162461bcd60e51b815260206004820152601d60248201527f54686973206164647265737320646964206e6f74207265676973746572000000604482015290519081900360640190fd5b610218336103ef565b60008054600354604080516370a0823160e01b8152306004820152905161029b93926001600160a01b0316916370a08231916024808301926020929190829003018186803b15801561026957600080fd5b505afa15801561027d573d6000803e3d6000fd5b505050506040513d602081101561029357600080fd5b505190610495565b6003546040805163a9059cbb60e01b81523360048201526024810184905290519293506001600160a01b039091169163a9059cbb916044808201926020929091908290030181600087803b1580156102f257600080fd5b505af1158015610306573d6000803e3d6000fd5b505050506040513d602081101561031c57600080fd5b50505050565b6000545b90565b60006002544210610375576040805162461bcd60e51b8152602060048201526011602482015270105a5c991c9bdc081a5cc818db1bdcd959607a1b604482015290519081900360640190fd5b6000546103e9116103bf576040805162461bcd60e51b815260206004820152600f60248201526e105a5c991c9bdc081a5cc8199d5b1b608a1b604482015290519081900360640190fd5b60006103ca336100f8565b509050806103e5576103db336104de565b6001915050610326565b6000915050610326565b6000806103fb836100f8565b9150915081156104905760008054600019810190811061041757fe5b600091825260208220015481546001600160a01b0390911691908390811061043b57fe5b6000918252602082200180546001600160a01b0319166001600160a01b03939093169290921790915580548061046d57fe5b600082815260209020810160001990810180546001600160a01b03191690550190555b505050565b60006104d783836040518060400160405280601a81526020017f536166654d6174683a206469766973696f6e206279207a65726f00000000000081525061053e565b9392505050565b60006104e9826100f8565b5090508061053a57600080546001810182559080527f290decd9548b62a8d60345a988386fc84ba6bc95484008f6362f93160ef3e5630180546001600160a01b0319166001600160a01b0384161790555b5050565b600081836105ca5760405162461bcd60e51b81526004018080602001828103825283818151815260200191508051906020019080838360005b8381101561058f578181015183820152602001610577565b50505050905090810190601f1680156105bc5780820380516001836020036101000a031916815260200191505b509250505060405180910390fd5b5060008385816105d657fe5b049594505050505056fea26469706673582212205a94d9f816653ccd5cd27c54aee45bf9e97538ea7d79bbece3d47a99c49a6af764736f6c634300060c0033",
  "immutableReferences": {},
  "source": "// SPDX-License-Identifier: MIT\n\npragma solidity ^ 0.6.6;\n\nimport \"@openzeppelin/contracts/token/ERC20/IERC20.sol\";\nimport \"@openzeppelin/contracts/math/SafeMath.sol\";\n\ncontract QAirdrop {\n    using SafeMath for uint256;\n\n    address[] private signees;\n    uint256 public totalAmount;\n    uint public closingTime;\n    IERC20 airdropToken;\n\n    constructor (\n        uint256 _totalAmount,\n        uint _closingTime,\n        address _airdropToken\n    ) public {\n        totalAmount = _totalAmount;\n        closingTime = _closingTime;\n        airdropToken = IERC20(_airdropToken);\n    }\n\n    function isSignee(address _address) public view returns (bool, uint256) {\n        for (uint256 i = 0; i < signees.length; i++) {\n            if (_address == signees[i]) return (true, i);\n        }\n        return (false, 0);\n    }\n\n    function totalSignees() public view returns (uint) {\n        return signees.length;\n    }\n\n    function addSignee(address _address) private {\n        (bool _isSignee, ) = isSignee(_address);\n        if(!_isSignee) signees.push(_address);\n    }\n\n    function removeSignee(address _address) private {\n        (bool _isSignee, uint256 i) = isSignee(_address);\n        if (_isSignee) {\n            signees[i] = signees[signees.length - 1];\n            signees.pop();\n        }\n    }\n\n    function signUp() public returns (bool) {\n        require(now < closingTime, \"Airdrop is closed\");\n        require(signees.length < 1001, \"Airdrop is full\");\n        (bool _isSignee, ) = isSignee(msg.sender);\n        if (!_isSignee) {\n            addSignee(msg.sender);\n            return true;\n        } else {\n            return false;\n        }\n    }\n\n    function claim() public {\n        require(now > closingTime, \"Airdrop is still open\");\n        (bool _isSignee, ) = isSignee(msg.sender);\n        require(_isSignee, \"This address did not register\");\n        removeSignee(msg.sender);\n        uint256 _airdropAmount = airdropToken.balanceOf(address(this)).div(signees.length);\n        airdropToken.transfer(msg.sender, _airdropAmount);\n    }\n}",
  "sourcePath": "/Users/dperk6/qfinance/qfinance-token/contracts/QAirdrop.sol",
  "compiler": {
    "name": "solc",
    "version": "0.6.12+commit.27d51765.Emscripten.clang"
  },
  "schemaVersion": "3.3.0",
  "updatedAt": "2020-12-20T05:25:05.786Z",
  "networkType": "ethereum",
  "devdoc": {
    "kind": "dev",
    "methods": {},
    "version": 1
  },
  "userdoc": {
    "kind": "user",
    "methods": {},
    "version": 1
  }
}