{
  "contractName": "QPool",
  "abi": [
    {
      "inputs": [
        {
          "internalType": "string",
          "name": "_poolName",
          "type": "string"
        },
        {
          "internalType": "address[]",
          "name": "_tokens",
          "type": "address[]"
        },
        {
          "internalType": "uint256[]",
          "name": "_amounts",
          "type": "uint256[]"
        },
        {
          "internalType": "address",
          "name": "_creator",
          "type": "address"
        }
      ],
      "stateMutability": "nonpayable",
      "type": "constructor"
    },
    {
      "anonymous": false,
      "inputs": [
        {
          "indexed": false,
          "internalType": "uint256",
          "name": "amount",
          "type": "uint256"
        }
      ],
      "name": "DepositProcessed",
      "type": "event"
    },
    {
      "anonymous": false,
      "inputs": [
        {
          "indexed": false,
          "internalType": "uint256[]",
          "name": "acquired",
          "type": "uint256[]"
        }
      ],
      "name": "TradeCompleted",
      "type": "event"
    },
    {
      "anonymous": false,
      "inputs": [
        {
          "indexed": false,
          "internalType": "uint256",
          "name": "amount",
          "type": "uint256"
        }
      ],
      "name": "WithdrawalProcessed",
      "type": "event"
    },
    {
      "stateMutability": "payable",
      "type": "fallback"
    },
    {
      "inputs": [],
      "name": "creator",
      "outputs": [
        {
          "internalType": "address",
          "name": "",
          "type": "address"
        }
      ],
      "stateMutability": "view",
      "type": "function"
    },
    {
      "inputs": [],
      "name": "poolName",
      "outputs": [
        {
          "internalType": "string",
          "name": "",
          "type": "string"
        }
      ],
      "stateMutability": "view",
      "type": "function"
    },
    {
      "inputs": [],
      "name": "uniswapRouter",
      "outputs": [
        {
          "internalType": "contract IUniswapV2Router02",
          "name": "",
          "type": "address"
        }
      ],
      "stateMutability": "view",
      "type": "function"
    },
    {
      "stateMutability": "payable",
      "type": "receive"
    },
    {
      "inputs": [],
      "name": "close",
      "outputs": [],
      "stateMutability": "nonpayable",
      "type": "function"
    },
    {
      "inputs": [],
      "name": "processDeposit",
      "outputs": [],
      "stateMutability": "payable",
      "type": "function"
    },
    {
      "inputs": [
        {
          "internalType": "uint256",
          "name": "_percent",
          "type": "uint256"
        }
      ],
      "name": "withdrawEth",
      "outputs": [],
      "stateMutability": "nonpayable",
      "type": "function"
    },
    {
      "inputs": [],
      "name": "totalValue",
      "outputs": [
        {
          "internalType": "uint256",
          "name": "",
          "type": "uint256"
        }
      ],
      "stateMutability": "view",
      "type": "function"
    },
    {
      "inputs": [],
      "name": "withdrawTokens",
      "outputs": [],
      "stateMutability": "nonpayable",
      "type": "function"
    },
    {
      "inputs": [],
      "name": "getTokens",
      "outputs": [
        {
          "internalType": "address[]",
          "name": "",
          "type": "address[]"
        }
      ],
      "stateMutability": "view",
      "type": "function"
    },
    {
      "inputs": [],
      "name": "getAmounts",
      "outputs": [
        {
          "internalType": "uint256[]",
          "name": "",
          "type": "uint256[]"
        }
      ],
      "stateMutability": "view",
      "type": "function"
    },
    {
      "inputs": [],
      "name": "isPublic",
      "outputs": [
        {
          "internalType": "bool",
          "name": "_isPublic",
          "type": "bool"
        }
      ],
      "stateMutability": "pure",
      "type": "function"
    }
  ],
  "bytecode": "0x6080604052600480546001600160a01b031916737a250d5630b4cf539739df2c5dacb4c659f2488d1790553480156200003757600080fd5b5060405162001cda38038062001cda833981810160405260808110156200005d57600080fd5b81019080805160405193929190846401000000008211156200007e57600080fd5b9083019060208201858111156200009457600080fd5b8251640100000000811182820188101715620000af57600080fd5b82525081516020918201929091019080838360005b83811015620000de578181015183820152602001620000c4565b50505050905090810190601f1680156200010c5780820380516001836020036101000a031916815260200191505b50604052602001805160405193929190846401000000008211156200013057600080fd5b9083019060208201858111156200014657600080fd5b82518660208202830111640100000000821117156200016457600080fd5b82525081516020918201928201910280838360005b838110156200019357818101518382015260200162000179565b5050505090500160405260200180516040519392919084640100000000821115620001bd57600080fd5b908301906020820185811115620001d357600080fd5b8251866020820283011164010000000082111715620001f157600080fd5b82525081516020918201928201910280838360005b838110156200022057818101518382015260200162000206565b50505050919091016040525060200151915060009050805b835181101562000269578381815181106200024f57fe5b602002602001015182019150808060010191505062000238565b50806064146200027857600080fd5b600080546001600160a01b0319166001600160a01b0384161790558451620002a890600190602088019062000303565b508351620002be90600290602087019062000388565b508251620002d4906003906020860190620003ee565b5050600454600580546001600160a01b0319166001600160a01b03909216919091179055506200046392505050565b828054600181600116156101000203166002900490600052602060002090601f016020900481019282601f106200034657805160ff191683800117855562000376565b8280016001018555821562000376579182015b828111156200037657825182559160200191906001019062000359565b50620003849291506200042b565b5090565b828054828255906000526020600020908101928215620003e0579160200282015b82811115620003e057825182546001600160a01b0319166001600160a01b03909116178255602090920191600190910190620003a9565b506200038492915062000442565b8280548282559060005260206000209081019282156200037657916020028201828111156200037657825182559160200191906001019062000359565b5b808211156200038457600081556001016200042c565b5b80821115620003845780546001600160a01b031916815560010162000443565b61186780620004736000396000f3fe6080604052600436106100a05760003560e01c80638f70bfa0116100645780638f70bfa0146100c7578063aa6ca808146101bd578063c311d049146101d2578063d4c3eea0146101fc578063dc9a153514610223578063f3466dfa1461024c576100d1565b806302d05d3f146100e85780633d370b4e1461011957806343d726d61461017e578063735de9f7146101935780638d8f2adb146101a8576100d1565b366100d1576000546001600160a01b031633146100bc57600080fd5b36156100c757600080fd5b6100cf6102d6565b005b6000546001600160a01b031633146100bc57600080fd5b3480156100f457600080fd5b506100fd61085c565b604080516001600160a01b039092168252519081900360200190f35b34801561012557600080fd5b5061012e61086b565b60408051602080825283518183015283519192839290830191858101910280838360005b8381101561016a578181015183820152602001610152565b505050509050019250505060405180910390f35b34801561018a57600080fd5b506100cf6108c4565b34801561019f57600080fd5b506100fd6108e8565b3480156101b457600080fd5b506100cf6108f7565b3480156101c957600080fd5b5061012e610a73565b3480156101de57600080fd5b506100cf600480360360208110156101f557600080fd5b5035610ad4565b34801561020857600080fd5b50610211611275565b60408051918252519081900360200190f35b34801561022f57600080fd5b506102386115b3565b604080519115158252519081900360200190f35b34801561025857600080fd5b506102616115b8565b6040805160208082528351818301528351919283929083019185019080838360005b8381101561029b578181015183820152602001610283565b50505050905090810190601f1680156102c85780820380516001836020036101000a031916815260200191505b509250505060405180910390f35b6000546001600160a01b031633146102ed57600080fd5b662386f26fc1000034116103325760405162461bcd60e51b81526004018080602001828103825260228152602001806117a96022913960400191505060405180910390fd5b60408051600280825260608083018452926020830190803683375050600554604080516315ab88c960e31b815290519394506001600160a01b039091169263ad5c464892506004808301926020929190829003018186803b15801561039657600080fd5b505afa1580156103aa573d6000803e3d6000fd5b505050506040513d60208110156103c057600080fd5b5051815182906000906103cf57fe5b60200260200101906001600160a01b031690816001600160a01b03168152505060005b6002548110156108255760008142600f010190506002828154811061041357fe5b9060005260206000200160009054906101000a90046001600160a01b03168360018151811061043e57fe5b60200260200101906001600160a01b031690816001600160a01b0316815250506000610495606461048f6003868154811061047557fe5b90600052602060002001543461164590919063ffffffff16565b906116a7565b6005546040805163d06ca61f60e01b815260048101848152602482019283528851604483015288519495506060946001600160a01b039094169363d06ca61f9387938b93926064909101906020808601910280838360005b838110156105055781810151838201526020016104ed565b50505050905001935050505060006040518083038186803b15801561052957600080fd5b505afa15801561053d573d6000803e3d6000fd5b505050506040513d6000823e601f3d908101601f19168201604052602081101561056657600080fd5b8101908080516040519392919084600160201b82111561058557600080fd5b90830190602082018581111561059a57600080fd5b82518660208202830111600160201b821117156105b657600080fd5b82525081516020918201928201910280838360005b838110156105e35781810151838201526020016105cb565b5050505090500160405250505090506060600560009054906101000a90046001600160a01b03166001600160a01b0316637ff36ab58360008151811061062557fe5b60200260200101518460018151811061063a57fe5b60200260200101518930896040518663ffffffff1660e01b81526004018085815260200180602001846001600160a01b03168152602001838152602001828103825285818151815260200191508051906020019060200280838360005b838110156106af578181015183820152602001610697565b50505050905001955050505050506000604051808303818588803b1580156106d657600080fd5b505af11580156106ea573d6000803e3d6000fd5b50505050506040513d6000823e601f3d908101601f19168201604052602081101561071457600080fd5b8101908080516040519392919084600160201b82111561073357600080fd5b90830190602082018581111561074857600080fd5b82518660208202830111600160201b8211171561076457600080fd5b82525081516020918201928201910280838360005b83811015610791578181015183820152602001610779565b5050505090500160405250505090507f0c0be0458d81eb4d49ad60cf18809971d496be3c9a7293dbf6b1e759b0e95957816040518080602001828103825283818151815260200191508051906020019060200280838360005b838110156108025781810151838201526020016107ea565b505050509050019250505060405180910390a15050600190920191506103f29050565b506040805134815290517f357e8ecb8719d1ea2362a4920bb1093bb9cde925b4984697817115eb99c23a5c9181900360200190a150565b6000546001600160a01b031681565b606060038054806020026020016040519081016040528092919081815260200182805480156108b957602002820191906000526020600020905b8154815260200190600101908083116108a5575b505050505090505b90565b6000546001600160a01b031633146108db57600080fd5b6108e56064610ad4565b33ff5b6005546001600160a01b031681565b6000546001600160a01b031633146109405760405162461bcd60e51b81526004018080602001828103825260248152602001806117ec6024913960400191505060405180910390fd5b60005b600254811015610a705760006002828154811061095c57fe5b6000918252602080832090910154604080516370a0823160e01b815230600482015290516001600160a01b03909216945084926370a0823192602480840193829003018186803b1580156109af57600080fd5b505afa1580156109c3573d6000803e3d6000fd5b505050506040513d60208110156109d957600080fd5b5051600080546040805163a9059cbb60e01b81526001600160a01b0392831660048201526024810185905290519394509085169263a9059cbb92604480840193602093929083900390910190829087803b158015610a3657600080fd5b505af1158015610a4a573d6000803e3d6000fd5b505050506040513d6020811015610a6057600080fd5b5050600190920191506109439050565b50565b606060028054806020026020016040519081016040528092919081815260200182805480156108b957602002820191906000526020600020905b81546001600160a01b03168152600190910190602001808311610aad575050505050905090565b6000546001600160a01b03163314610b1d5760405162461bcd60e51b81526004018080602001828103825260228152602001806118106022913960400191505060405180910390fd5b600081118015610b2e575060648111155b610b695760405162461bcd60e51b81526004018080602001828103825260228152602001806117876022913960400191505060405180910390fd5b60408051600280825260608083018452926020830190803683370190505090506000805b60025481101561123c57600060028281548110610ba657fe5b6000918252602080832090910154604080516370a0823160e01b815230600482015290516001600160a01b03909216945084926370a0823192602480840193829003018186803b158015610bf957600080fd5b505afa158015610c0d573d6000803e3d6000fd5b505050506040513d6020811015610c2357600080fd5b505190506000610c38606461048f848a611645565b905060008111610c82576040805162461bcd60e51b815260206004820152601060248201526f20b6b7bab73a1037baba1034b990181760811b604482015290519081900360640190fd5b6005546040805163095ea7b360e01b81526001600160a01b0392831660048201526024810184905290519185169163095ea7b3916044808201926020929091908290030181600087803b158015610cd857600080fd5b505af1158015610cec573d6000803e3d6000fd5b505050506040513d6020811015610d0257600080fd5b5051610d47576040805162461bcd60e51b815260206004820152600f60248201526e105c1c1c9bdd985b0819985a5b1959608a1b604482015290519081900360640190fd5b60028481548110610d5457fe5b600091825260208220015487516001600160a01b03909116918891610d7557fe5b6001600160a01b03928316602091820292909201810191909152600554604080516315ab88c960e31b81529051919093169263ad5c4648926004808301939192829003018186803b158015610dc957600080fd5b505afa158015610ddd573d6000803e3d6000fd5b505050506040513d6020811015610df357600080fd5b5051865187906001908110610e0457fe5b6001600160a01b039283166020918202929092018101919091526005546040805163d06ca61f60e01b815260048101868152602482019283528b5160448301528b51606096949094169463d06ca61f9488948e949092606490910191858201910280838360005b83811015610e83578181015183820152602001610e6b565b50505050905001935050505060006040518083038186803b158015610ea757600080fd5b505afa158015610ebb573d6000803e3d6000fd5b505050506040513d6000823e601f3d908101601f191682016040526020811015610ee457600080fd5b8101908080516040519392919084600160201b821115610f0357600080fd5b908301906020820185811115610f1857600080fd5b82518660208202830111600160201b82111715610f3457600080fd5b82525081516020918201928201910280838360005b83811015610f61578181015183820152602001610f49565b505050509050016040525050509050620f424081600181518110610f8157fe5b602002602001015111610fdb576040805162461bcd60e51b815260206004820152601f60248201527f416d6f756e7420697320746f6f20736d616c6c20746f207472616e7366657200604482015290519081900360640190fd5b6005548151428701600f01916060916001600160a01b03909116906318cbafe590859060009061100757fe5b60200260200101518560018151811061101c57fe5b60200260200101518c60008054906101000a90046001600160a01b0316876040518663ffffffff1660e01b81526004018086815260200185815260200180602001846001600160a01b03168152602001838152602001828103825285818151815260200191508051906020019060200280838360005b838110156110aa578181015183820152602001611092565b505050509050019650505050505050600060405180830381600087803b1580156110d357600080fd5b505af11580156110e7573d6000803e3d6000fd5b505050506040513d6000823e601f3d908101601f19168201604052602081101561111057600080fd5b8101908080516040519392919084600160201b82111561112f57600080fd5b90830190602082018581111561114457600080fd5b82518660208202830111600160201b8211171561116057600080fd5b82525081516020918201928201910280838360005b8381101561118d578181015183820152602001611175565b505050509050016040525050509050806001815181106111a957fe5b6020026020010151880197507f0c0be0458d81eb4d49ad60cf18809971d496be3c9a7293dbf6b1e759b0e95957816040518080602001828103825283818151815260200191508051906020019060200280838360005b838110156112175781810151838201526020016111ff565b505050509050019250505060405180910390a1505060019094019350610b8d92505050565b506040805182815290517ffe58aa1cb04799cee89507f6618d46acbbc3d11551df3122cd67b9ee273ea7769181900360200190a1505050565b60408051600280825260608083018452600093849391929060208301908036833701905050905060005b600254811080156112b1575060058111155b156115ab576000600282815481106112c557fe5b6000918252602080832090910154604080516370a0823160e01b815230600482015290516001600160a01b03909216945084926370a0823192602480840193829003018186803b15801561131857600080fd5b505afa15801561132c573d6000803e3d6000fd5b505050506040513d602081101561134257600080fd5b5051905080611359576000955050505050506108c1565b6002838154811061136657fe5b600091825260208220015485516001600160a01b0390911691869161138757fe5b6001600160a01b03928316602091820292909201810191909152600554604080516315ab88c960e31b81529051919093169263ad5c4648926004808301939192829003018186803b1580156113db57600080fd5b505afa1580156113ef573d6000803e3d6000fd5b505050506040513d602081101561140557600080fd5b505184518590600190811061141657fe5b6001600160a01b039283166020918202929092018101919091526005546040805163d06ca61f60e01b81526004810186815260248201928352895160448301528951606096949094169463d06ca61f9488948c949092606490910191858201910280838360005b8381101561149557818101518382015260200161147d565b50505050905001935050505060006040518083038186803b1580156114b957600080fd5b505afa1580156114cd573d6000803e3d6000fd5b505050506040513d6000823e601f3d908101601f1916820160405260208110156114f657600080fd5b8101908080516040519392919084600160201b82111561151557600080fd5b90830190602082018581111561152a57600080fd5b82518660208202830111600160201b8211171561154657600080fd5b82525081516020918201928201910280838360005b8381101561157357818101518382015260200161155b565b5050505090500160405250505090508060018151811061158f57fe5b602002602001015186019550505050808060010191505061129f565b509091505090565b600090565b60018054604080516020600284861615610100026000190190941693909304601f8101849004840282018401909252818152929183018282801561163d5780601f106116125761010080835404028352916020019161163d565b820191906000526020600020905b81548152906001019060200180831161162057829003601f168201915b505050505081565b600082611654575060006116a1565b8282028284828161166157fe5b041461169e5760405162461bcd60e51b81526004018080602001828103825260218152602001806117cb6021913960400191505060405180910390fd5b90505b92915050565b600061169e83836040518060400160405280601a81526020017f536166654d6174683a206469766973696f6e206279207a65726f000000000000815250600081836117705760405162461bcd60e51b81526004018080602001828103825283818151815260200191508051906020019080838360005b8381101561173557818101518382015260200161171d565b50505050905090810190601f1680156117625780820380516001836020036101000a031916815260200191505b509250505060405180910390fd5b50600083858161177c57fe5b049594505050505056fe50657263656e74206d757374206265206265747765656e203020616e64203130302e4d696e696d756d206465706f73697420616d6f756e7420697320302e303120455448536166654d6174683a206d756c7469706c69636174696f6e206f766572666c6f774f6e6c79207468652063726561746f722063616e20776974686472617720746f6b656e734f6e6c79207468652063726561746f722063616e207769746864726177204554482ea2646970667358221220c88400741385384efaa5970317f3561f782d015cd64efc59a7dc5262a986ce5c64736f6c634300060c0033",
  "immutableReferences": {},
  "source": "// SPDX-License-Identifier: MIT\n\npragma solidity ^ 0.6.6;\n\nimport \"@openzeppelin/contracts/math/SafeMath.sol\";\nimport \"@openzeppelin/contracts/token/ERC20/IERC20.sol\";\nimport \"@uniswap/v2-periphery/contracts/interfaces/IUniswapV2Router02.sol\";\n\ncontract QPool {\n    using SafeMath for uint256;\n\n    address public creator;\n    string public poolName;\n    address[] private tokens;\n    uint[] private amounts;\n    address private uniswapFactoryAddress = 0x7a250d5630B4cF539739dF2C5dAcb4c659F2488D;\n    IUniswapV2Router02 public uniswapRouter;\n\n    event TradeCompleted(uint256[] acquired);\n    event DepositProcessed(uint256 amount);\n    event WithdrawalProcessed(uint256 amount);\n\n    constructor(\n        string memory _poolName,\n        address[] memory _tokens,\n        uint[] memory _amounts,\n        address _creator\n    ) public {\n        uint _total = 0;\n        for (uint i = 0; i < _amounts.length; i++) {\n            _total += _amounts[i];\n        }\n        require(_total == 100);\n        creator = _creator;\n        poolName = _poolName;\n        tokens = _tokens;\n        amounts = _amounts;\n        uniswapRouter = IUniswapV2Router02(uniswapFactoryAddress);\n    }\n\n    fallback() external payable {\n        require(msg.sender == creator);\n        require(msg.data.length == 0);\n        processDeposit();\n    }\n\n    receive() external payable {\n        require(msg.sender == creator);\n        require(msg.data.length == 0);\n        processDeposit();\n    }\n\n    function close() external {\n        require(msg.sender == creator);\n        withdrawEth(100);\n        selfdestruct(msg.sender);\n    }\n\n    function processDeposit() public payable {\n        require(msg.sender == creator);\n        require(msg.value > 10000000000000000, \"Minimum deposit amount is 0.01 ETH\");\n        address[] memory _path = new address[](2);\n        _path[0] = uniswapRouter.WETH();\n        for (uint256 i = 0; i < tokens.length; i++) {\n            uint256 time = now + 15 + i;\n            _path[1] = tokens[i];\n            uint256 _amountEth = msg.value.mul(amounts[i]).div(100);\n            uint256[] memory _expected = uniswapRouter.getAmountsOut(_amountEth, _path);\n            uint256[] memory _output = uniswapRouter.swapExactETHForTokens.value(_expected[0])(_expected[1], _path, address(this), time);\n            emit TradeCompleted(_output);\n        }\n        emit DepositProcessed(msg.value);\n    }\n\n    function withdrawEth(uint256 _percent) public {\n        require(msg.sender == creator, \"Only the creator can withdraw ETH.\");\n        require(_percent > 0 && _percent <= 100, \"Percent must be between 0 and 100.\");\n        address[] memory _path = new address[](2);\n        uint256 total = 0;\n        for (uint i = 0; i < tokens.length; i++) {\n            IERC20 _token = IERC20(tokens[i]);\n            uint256 _addressBalance = _token.balanceOf(address(this));\n            uint256 _amountOut = _addressBalance.mul(_percent).div(100);\n            require(_amountOut > 0, \"Amount out is 0.\");\n            require(_token.approve(address(uniswapRouter), _amountOut), \"Approval failed\");\n            _path[0] = tokens[i];\n            _path[1] = uniswapRouter.WETH();\n            uint256[] memory _expected = uniswapRouter.getAmountsOut(_amountOut, _path);\n            require(_expected[1] > 1000000, \"Amount is too small to transfer\");\n            uint256 _time = now + 15 + i;\n            uint256[] memory _output = uniswapRouter.swapExactTokensForETH(_expected[0], _expected[1], _path, creator, _time);\n            total += _output[1];\n            emit TradeCompleted(_output);\n        }\n        emit WithdrawalProcessed(total);\n    }\n\n    function totalValue() public view returns (uint256) {\n        uint256 _totalValue = 0;\n        address[] memory _path = new address[](2);\n        for (uint i = 0; i < tokens.length && i <= 5; i++) {\n            IERC20 _token = IERC20(tokens[i]);\n            uint256 _totalBalance = _token.balanceOf(address(this));\n            if (_totalBalance == 0) return 0;\n            _path[0] = tokens[i];\n            _path[1] = uniswapRouter.WETH();\n            uint256[] memory _ethValue = uniswapRouter.getAmountsOut(_totalBalance, _path);\n            _totalValue += _ethValue[1];\n        }\n        return _totalValue;\n    }\n    \n    function withdrawTokens() public {\n        require(msg.sender == creator, \"Only the creator can withdraw tokens\");\n        for (uint i = 0; i < tokens.length; i++) {\n            IERC20 _token = IERC20(tokens[i]);\n            uint256 _tokenBalance = _token.balanceOf(address(this));\n            _token.transfer(creator, _tokenBalance);\n        }\n    }\n\n    function getTokens() public view returns (address[] memory) {\n        return tokens;\n    }\n\n    function getAmounts() public view returns (uint[] memory) {\n        return amounts;\n    }\n\n    function isPublic() public pure returns (bool _isPublic) {\n        return false;\n    }\n\n}",
  "sourcePath": "/Users/dperk6/qfinance/qfinance-core/contracts/QPool.sol",
  "compiler": {
    "name": "solc",
    "version": "0.6.12+commit.27d51765.Emscripten.clang"
  },
  "schemaVersion": "3.3.0",
  "updatedAt": "2020-12-03T02:18:29.309Z",
  "devdoc": {
    "kind": "dev",
    "methods": {},
    "version": 1
  },
  "userdoc": {
    "kind": "user",
    "methods": {},
    "version": 1
  }
}