{
  "contractName": "QPoolStakingFactory",
  "abi": [
    {
      "inputs": [
        {
          "internalType": "address",
          "name": "_rewardsToken",
          "type": "address"
        },
        {
          "internalType": "uint256",
          "name": "_stakingRewardsGenesis",
          "type": "uint256"
        }
      ],
      "stateMutability": "nonpayable",
      "type": "constructor"
    },
    {
      "anonymous": false,
      "inputs": [
        {
          "indexed": true,
          "internalType": "address",
          "name": "previousOwner",
          "type": "address"
        },
        {
          "indexed": true,
          "internalType": "address",
          "name": "newOwner",
          "type": "address"
        }
      ],
      "name": "OwnershipTransferred",
      "type": "event"
    },
    {
      "inputs": [],
      "name": "owner",
      "outputs": [
        {
          "internalType": "address",
          "name": "",
          "type": "address"
        }
      ],
      "stateMutability": "view",
      "type": "function",
      "constant": true
    },
    {
      "inputs": [],
      "name": "renounceOwnership",
      "outputs": [],
      "stateMutability": "nonpayable",
      "type": "function"
    },
    {
      "inputs": [],
      "name": "rewardsToken",
      "outputs": [
        {
          "internalType": "address",
          "name": "",
          "type": "address"
        }
      ],
      "stateMutability": "view",
      "type": "function",
      "constant": true
    },
    {
      "inputs": [],
      "name": "stakingRewardsGenesis",
      "outputs": [
        {
          "internalType": "uint256",
          "name": "",
          "type": "uint256"
        }
      ],
      "stateMutability": "view",
      "type": "function",
      "constant": true
    },
    {
      "inputs": [
        {
          "internalType": "address",
          "name": "",
          "type": "address"
        }
      ],
      "name": "stakingRewardsInfoByStakingToken",
      "outputs": [
        {
          "internalType": "address",
          "name": "stakingRewards",
          "type": "address"
        },
        {
          "internalType": "uint256",
          "name": "rewardAmount",
          "type": "uint256"
        }
      ],
      "stateMutability": "view",
      "type": "function",
      "constant": true
    },
    {
      "inputs": [
        {
          "internalType": "address",
          "name": "newOwner",
          "type": "address"
        }
      ],
      "name": "transferOwnership",
      "outputs": [],
      "stateMutability": "nonpayable",
      "type": "function"
    },
    {
      "inputs": [
        {
          "internalType": "address",
          "name": "stakingToken",
          "type": "address"
        },
        {
          "internalType": "uint256",
          "name": "rewardAmount",
          "type": "uint256"
        },
        {
          "internalType": "uint256",
          "name": "stakingDuration",
          "type": "uint256"
        }
      ],
      "name": "deploy",
      "outputs": [],
      "stateMutability": "nonpayable",
      "type": "function"
    },
    {
      "inputs": [
        {
          "internalType": "address",
          "name": "stakingToken",
          "type": "address"
        },
        {
          "internalType": "uint256",
          "name": "rewardAmount",
          "type": "uint256"
        }
      ],
      "name": "updateStakingRewards",
      "outputs": [
        {
          "internalType": "uint256",
          "name": "newReward",
          "type": "uint256"
        }
      ],
      "stateMutability": "nonpayable",
      "type": "function"
    },
    {
      "inputs": [],
      "name": "getTokens",
      "outputs": [
        {
          "internalType": "address[]",
          "name": "",
          "type": "address[]"
        }
      ],
      "stateMutability": "view",
      "type": "function",
      "constant": true
    },
    {
      "inputs": [],
      "name": "notifyRewardAmounts",
      "outputs": [],
      "stateMutability": "nonpayable",
      "type": "function"
    },
    {
      "inputs": [
        {
          "internalType": "address",
          "name": "stakingToken",
          "type": "address"
        }
      ],
      "name": "notifyRewardAmount",
      "outputs": [],
      "stateMutability": "nonpayable",
      "type": "function"
    }
  ],
  "bytecode": "0x608060405234801561001057600080fd5b50604051611e72380380611e728339818101604052604081101561003357600080fd5b50805160209091015160006100466100f8565b600080546001600160a01b0319166001600160a01b0383169081178255604051929350917f8be0079c531659141344cd1fd0a4f28419497f9722a3daafe3b4186f6b6457e0908290a350428110156100cf5760405162461bcd60e51b8152600401808060200182810382526034815260200180611e3e6034913960400191505060405180910390fd5b600180546001600160a01b0319166001600160a01b0393909316929092179091556002556100fc565b3390565b611d338061010b6000396000f3fe608060405234801561001057600080fd5b50600436106100a95760003560e01c8063a0928c1111610071578063a0928c1114610189578063aa6ca80814610191578063ae741d8d146101e9578063cfda5478146101f1578063d1af0c7d14610223578063f2fde38b1461022b576100a9565b806342e5cdd8146100ae5780636cf8caf8146100ec578063715018a61461013557806381e162981461013f5780638da5cb5b14610165575b600080fd5b6100da600480360360408110156100c457600080fd5b506001600160a01b038135169060200135610251565b60408051918252519081900360200190f35b6101126004803603602081101561010257600080fd5b50356001600160a01b03166102e2565b604080516001600160a01b03909316835260208301919091528051918290030190f35b61013d610307565b005b61013d6004803603602081101561015557600080fd5b50356001600160a01b03166103a9565b61016d610584565b604080516001600160a01b039092168252519081900360200190f35b6100da610593565b610199610599565b60408051602080825283518183015283519192839290830191858101910280838360005b838110156101d55781810151838201526020016101bd565b505050509050019250505060405180910390f35b61013d6105fb565b61013d6004803603606081101561020757600080fd5b506001600160a01b03813516906020810135906040013561067b565b61016d610808565b61013d6004803603602081101561024157600080fd5b50356001600160a01b0316610817565b600061025b61090f565b6000546001600160a01b039081169116146102ab576040805162461bcd60e51b81526020600482018190526024820152600080516020611bf4833981519152604482015290519081900360640190fd5b6001600160a01b038316600090815260046020526040902060018101546102d29084610913565b6001909101819055905092915050565b600460205260009081526040902080546001909101546001600160a01b039091169082565b61030f61090f565b6000546001600160a01b0390811691161461035f576040805162461bcd60e51b81526020600482018190526024820152600080516020611bf4833981519152604482015290519081900360640190fd5b600080546040516001600160a01b03909116907f8be0079c531659141344cd1fd0a4f28419497f9722a3daafe3b4186f6b6457e0908390a3600080546001600160a01b0319169055565b6002544210156103ea5760405162461bcd60e51b8152600401808060200182810382526034815260200180611c936034913960400191505060405180910390fd5b6001600160a01b03808216600090815260046020526040902080549091166104435760405162461bcd60e51b8152600401808060200182810382526037815260200180611cc76037913960400191505060405180910390fd5b6001810154156105805760018082018054600091829055915483546040805163a9059cbb60e01b81526001600160a01b039283166004820152602481018690529051919092169263a9059cbb92604480820193602093909283900390910190829087803b1580156104b357600080fd5b505af11580156104c7573d6000803e3d6000fd5b505050506040513d60208110156104dd57600080fd5b505161051a5760405162461bcd60e51b815260040180806020018281038252603a815260200180611c59603a913960400191505060405180910390fd5b815460408051633c6b16ab60e01b81526004810184905290516001600160a01b0390921691633c6b16ab9160248082019260009290919082900301818387803b15801561056657600080fd5b505af115801561057a573d6000803e3d6000fd5b50505050505b5050565b6000546001600160a01b031690565b60025481565b606060038054806020026020016040519081016040528092919081815260200182805480156105f157602002820191906000526020600020905b81546001600160a01b031681526001909101906020018083116105d3575b5050505050905090565b6003546106395760405162461bcd60e51b8152600401808060200182810382526045815260200180611c146045913960600191505060405180910390fd5b60005b600354811015610678576106706003828154811061065657fe5b6000918252602090912001546001600160a01b03166103a9565b60010161063c565b50565b61068361090f565b6000546001600160a01b039081169116146106d3576040805162461bcd60e51b81526020600482018190526024820152600080516020611bf4833981519152604482015290519081900360640190fd5b6001600160a01b03808416600090815260046020526040902080549091161561072d5760405162461bcd60e51b815260040180806020018281038252602f815260200180611bc5602f913960400191505060405180910390fd5b60015460405130916001600160a01b0316908690859061074c90610974565b80856001600160a01b03168152602001846001600160a01b03168152602001836001600160a01b03168152602001828152602001945050505050604051809103906000f0801580156107a2573d6000803e3d6000fd5b5081546001600160a01b03199081166001600160a01b039283161783556001928301949094556003805492830181556000527fc2575a0e9e593c00f959f8c92f12db2869c3395a3b0502d05e2516446f71f85b9091018054909316931692909217905550565b6001546001600160a01b031681565b61081f61090f565b6000546001600160a01b0390811691161461086f576040805162461bcd60e51b81526020600482018190526024820152600080516020611bf4833981519152604482015290519081900360640190fd5b6001600160a01b0381166108b45760405162461bcd60e51b8152600401808060200182810382526026815260200180611b9f6026913960400191505060405180910390fd5b600080546040516001600160a01b03808516939216917f8be0079c531659141344cd1fd0a4f28419497f9722a3daafe3b4186f6b6457e091a3600080546001600160a01b0319166001600160a01b0392909216919091179055565b3390565b60008282018381101561096d576040805162461bcd60e51b815260206004820152601b60248201527f536166654d6174683a206164646974696f6e206f766572666c6f770000000000604482015290519081900360640190fd5b9392505050565b61121d806109828339019056fe60806040526000600355600060045534801561001a57600080fd5b5060405161121d38038061121d8339818101604052608081101561003d57600080fd5b508051602082015160408301516060909301516001600081905580546001600160a01b039384166001600160a01b03199182161790915560028054958416958216959095179094556008805492909316919093161790556201518002600555611172806100ab6000396000f3fe608060405234801561001057600080fd5b50600436106101365760003560e01c806372f702f3116100b8578063c8f33c911161007c578063c8f33c911461029a578063cd3daf9d146102a2578063d1af0c7d146102aa578063df136d65146102b2578063e9fad8ee146102ba578063ebe2b12b146102c257610136565b806372f702f31461023f5780637b0a47ee1461024757806380faa57d1461024f5780638b87634714610257578063a694fc3a1461027d57610136565b8063386a9525116100ff578063386a9525146101c85780633c6b16ab146101d05780633d18b912146101ed5780633fc6df6e146101f557806370a082311461021957610136565b80628cc2621461013b5780630700037d1461017357806318160ddd146101995780631c1f78eb146101a15780632e1a7d4d146101a9575b600080fd5b6101616004803603602081101561015157600080fd5b50356001600160a01b03166102ca565b60408051918252519081900360200190f35b6101616004803603602081101561018957600080fd5b50356001600160a01b0316610348565b61016161035a565b610161610361565b6101c6600480360360208110156101bf57600080fd5b503561037f565b005b610161610515565b6101c6600480360360208110156101e657600080fd5b503561051b565b6101c661074e565b6101fd610885565b604080516001600160a01b039092168252519081900360200190f35b6101616004803603602081101561022f57600080fd5b50356001600160a01b0316610894565b6101fd6108af565b6101616108be565b6101616108c4565b6101616004803603602081101561026d57600080fd5b50356001600160a01b03166108d2565b6101c66004803603602081101561029357600080fd5b50356108e4565b610161610a78565b610161610a7e565b6101fd610acc565b610161610adb565b6101c6610ae1565b610161610b04565b6001600160a01b0381166000908152600a60209081526040808320546009909252822054610342919061033c90670de0b6b3a7640000906103369061031790610311610a7e565b90610b0a565b6001600160a01b0388166000908152600c602052604090205490610b53565b90610bac565b90610bee565b92915050565b600a6020526000908152604090205481565b600b545b90565b600061037a600554600454610b5390919063ffffffff16565b905090565b600260005414156103d7576040805162461bcd60e51b815260206004820152601f60248201527f5265656e7472616e637947756172643a207265656e7472616e742063616c6c00604482015290519081900360640190fd5b6002600055336103e5610a7e565b6007556103f06108c4565b6006556001600160a01b038116156104375761040b816102ca565b6001600160a01b0382166000908152600a60209081526040808320939093556007546009909152919020555b60008211610480576040805162461bcd60e51b8152602060048201526011602482015270043616e6e6f74207769746864726177203607c1b604482015290519081900360640190fd5b600b5461048d9083610b0a565b600b55336000908152600c60205260409020546104aa9083610b0a565b336000818152600c60205260409020919091556002546104d6916001600160a01b039091169084610c48565b60408051838152905133917f7084f5476618d8e60b11ef0d7d3f06914655adb8793e28ff7f018d4c76d505d5919081900360200190a250506001600055565b60055481565b6008546001600160a01b031633146105645760405162461bcd60e51b815260040180806020018281038252602a8152602001806110e9602a913960400191505060405180910390fd5b600061056e610a7e565b6007556105796108c4565b6006556001600160a01b038116156105c057610594816102ca565b6001600160a01b0382166000908152600a60209081526040808320939093556007546009909152919020555b60035442106105df576005546105d7908390610bac565b600455610622565b6003546000906105ef9042610b0a565b9050600061060860045483610b5390919063ffffffff16565b60055490915061061c906103368684610bee565b60045550505b600154604080516370a0823160e01b815230600482015290516000926001600160a01b0316916370a08231916024808301926020929190829003018186803b15801561066d57600080fd5b505afa158015610681573d6000803e3d6000fd5b505050506040513d602081101561069757600080fd5b50516005549091506106aa908290610bac565b6004541115610700576040805162461bcd60e51b815260206004820152601860248201527f50726f76696465642072657761726420746f6f20686967680000000000000000604482015290519081900360640190fd5b4260068190556005546107139190610bee565b6003556040805184815290517fde88a922e0d3b88b24e9623efeb464919c6bf9f66857a65e2bfcf2ce87a9433d9181900360200190a1505050565b600260005414156107a6576040805162461bcd60e51b815260206004820152601f60248201527f5265656e7472616e637947756172643a207265656e7472616e742063616c6c00604482015290519081900360640190fd5b6002600055336107b4610a7e565b6007556107bf6108c4565b6006556001600160a01b03811615610806576107da816102ca565b6001600160a01b0382166000908152600a60209081526040808320939093556007546009909152919020555b336000908152600a6020526040902054801561087c57336000818152600a6020526040812055600154610845916001600160a01b039091169083610c48565b60408051828152905133917fe2403640ba68fed3a2f88b7557551d1993f84b99bb10ff833f0cf8db0c5e0486919081900360200190a25b50506001600055565b6008546001600160a01b031681565b6001600160a01b03166000908152600c602052604090205490565b6002546001600160a01b031681565b60045481565b600061037a42600354610c9f565b60096020526000908152604090205481565b6002600054141561093c576040805162461bcd60e51b815260206004820152601f60248201527f5265656e7472616e637947756172643a207265656e7472616e742063616c6c00604482015290519081900360640190fd5b60026000553361094a610a7e565b6007556109556108c4565b6006556001600160a01b0381161561099c57610970816102ca565b6001600160a01b0382166000908152600a60209081526040808320939093556007546009909152919020555b600082116109e2576040805162461bcd60e51b815260206004820152600e60248201526d043616e6e6f74207374616b6520360941b604482015290519081900360640190fd5b600b546109ef9083610bee565b600b55336000908152600c6020526040902054610a0c9083610bee565b336000818152600c6020526040902091909155600254610a39916001600160a01b03909116903085610cb5565b60408051838152905133917f9e71bc8eea02a63969f509818f2dafb9254532904319f9dbda79b67bd34a5f3d919081900360200190a250506001600055565b60065481565b6000600b5460001415610a94575060075461035e565b61037a610ac3600b54610336670de0b6b3a7640000610abd600454610abd6006546103116108c4565b90610b53565b60075490610bee565b6001546001600160a01b031681565b60075481565b336000908152600c6020526040902054610afa9061037f565b610b0261074e565b565b60035481565b6000610b4c83836040518060400160405280601e81526020017f536166654d6174683a207375627472616374696f6e206f766572666c6f770000815250610d15565b9392505050565b600082610b6257506000610342565b82820282848281610b6f57fe5b0414610b4c5760405162461bcd60e51b81526004018080602001828103825260218152602001806110c86021913960400191505060405180910390fd5b6000610b4c83836040518060400160405280601a81526020017f536166654d6174683a206469766973696f6e206279207a65726f000000000000815250610dac565b600082820183811015610b4c576040805162461bcd60e51b815260206004820152601b60248201527f536166654d6174683a206164646974696f6e206f766572666c6f770000000000604482015290519081900360640190fd5b604080516001600160a01b038416602482015260448082018490528251808303909101815260649091019091526020810180516001600160e01b031663a9059cbb60e01b179052610c9a908490610e11565b505050565b6000818310610cae5781610b4c565b5090919050565b604080516001600160a01b0380861660248301528416604482015260648082018490528251808303909101815260849091019091526020810180516001600160e01b03166323b872dd60e01b179052610d0f908590610e11565b50505050565b60008184841115610da45760405162461bcd60e51b81526004018080602001828103825283818151815260200191508051906020019080838360005b83811015610d69578181015183820152602001610d51565b50505050905090810190601f168015610d965780820380516001836020036101000a031916815260200191505b509250505060405180910390fd5b505050900390565b60008183610dfb5760405162461bcd60e51b8152602060048201818152835160248401528351909283926044909101919085019080838360008315610d69578181015183820152602001610d51565b506000838581610e0757fe5b0495945050505050565b6060610e66826040518060400160405280602081526020017f5361666545524332303a206c6f772d6c6576656c2063616c6c206661696c6564815250856001600160a01b0316610ec29092919063ffffffff16565b805190915015610c9a57808060200190516020811015610e8557600080fd5b5051610c9a5760405162461bcd60e51b815260040180806020018281038252602a815260200180611113602a913960400191505060405180910390fd5b6060610ed18484600085610ed9565b949350505050565b606082471015610f1a5760405162461bcd60e51b81526004018080602001828103825260268152602001806110a26026913960400191505060405180910390fd5b610f2385611035565b610f74576040805162461bcd60e51b815260206004820152601d60248201527f416464726573733a2063616c6c20746f206e6f6e2d636f6e7472616374000000604482015290519081900360640190fd5b60006060866001600160a01b031685876040518082805190602001908083835b60208310610fb35780518252601f199092019160209182019101610f94565b6001836020036101000a03801982511681845116808217855250505050505090500191505060006040518083038185875af1925050503d8060008114611015576040519150601f19603f3d011682016040523d82523d6000602084013e61101a565b606091505b509150915061102a82828661103b565b979650505050505050565b3b151590565b6060831561104a575081610b4c565b82511561105a5782518084602001fd5b60405162461bcd60e51b8152602060048201818152845160248401528451859391928392604401919085019080838360008315610d69578181015183820152602001610d5156fe416464726573733a20696e73756666696369656e742062616c616e636520666f722063616c6c536166654d6174683a206d756c7469706c69636174696f6e206f766572666c6f7743616c6c6572206973206e6f742052657761726473446973747269627574696f6e20636f6e74726163745361666545524332303a204552433230206f7065726174696f6e20646964206e6f742073756363656564a2646970667358221220a5e5eb34b833bcc5fad80d0a18bf1d1c920779f9aa04bdf0e1cbe2189ea687db64736f6c634300060c00334f776e61626c653a206e6577206f776e657220697320746865207a65726f20616464726573735374616b696e6752657761726473466163746f72793a3a6465706c6f793a20616c7265616479206465706c6f7965644f776e61626c653a2063616c6c6572206973206e6f7420746865206f776e65725374616b696e6752657761726473466163746f72793a3a6e6f74696679526577617264416d6f756e74733a2063616c6c6564206265666f726520616e79206465706c6f79735374616b696e6752657761726473466163746f72793a3a6e6f74696679526577617264416d6f756e743a207472616e73666572206661696c65645374616b696e6752657761726473466163746f72793a3a6e6f74696679526577617264416d6f756e743a206e6f742072656164795374616b696e6752657761726473466163746f72793a3a6e6f74696679526577617264416d6f756e743a206e6f74206465706c6f796564a26469706673582212200866ab2baaadc0b0bc45425d4088e45f1ac4a48950f6352955e23effbfc94e8e64736f6c634300060c00335374616b696e6752657761726473466163746f72793a3a636f6e7374727563746f723a2067656e6573697320746f6f20736f6f6e",
  "immutableReferences": {},
  "source": "// SPDX-License-Identifier: MIT\n// Forked from Uniswap Liquidity Staking contract\n\npragma solidity ^ 0.6.6;\n\nimport \"@openzeppelin/contracts/token/ERC20/IERC20.sol\";\nimport \"@openzeppelin/contracts/access/Ownable.sol\";\nimport \"@openzeppelin/contracts/math/SafeMath.sol\";\nimport \"./QPoolRewards.sol\";\n\ncontract QPoolStakingFactory is Ownable {\n    using SafeMath for uint256;\n    // immutables\n    address public rewardsToken;\n    uint public stakingRewardsGenesis;\n\n    // the staking tokens for which the rewards contract has been deployed\n    address[] private stakingTokens;\n\n    // info about rewards for a particular staking token\n    struct StakingRewardsInfo {\n        address stakingRewards;\n        uint rewardAmount;\n    }\n\n    // rewards info by staking token\n    mapping(address => StakingRewardsInfo) public stakingRewardsInfoByStakingToken;\n\n    constructor(\n        address _rewardsToken,\n        uint _stakingRewardsGenesis\n    ) Ownable() public {\n        require(_stakingRewardsGenesis >= block.timestamp, 'StakingRewardsFactory::constructor: genesis too soon');\n        rewardsToken = _rewardsToken;\n        stakingRewardsGenesis = _stakingRewardsGenesis;\n    }\n\n    ///// permissioned functions\n\n    // deploy a staking reward contract for the staking token, and store the reward amount\n    // the reward will be distributed to the staking reward contract no sooner than the genesis\n    function deploy(address stakingToken, uint rewardAmount, uint stakingDuration) public onlyOwner {\n        StakingRewardsInfo storage info = stakingRewardsInfoByStakingToken[stakingToken];\n        require(info.stakingRewards == address(0), 'StakingRewardsFactory::deploy: already deployed');\n        info.stakingRewards = address(new QPoolRewards(address(this), rewardsToken, stakingToken, stakingDuration));\n        info.rewardAmount = rewardAmount;\n        stakingTokens.push(stakingToken);\n    }\n    \n    function updateStakingRewards(address stakingToken, uint rewardAmount) public onlyOwner returns (uint256 newReward) {\n        StakingRewardsInfo storage info = stakingRewardsInfoByStakingToken[stakingToken];\n        info.rewardAmount = info.rewardAmount.add(rewardAmount);\n        return info.rewardAmount;\n    }\n    \n    ///// view functions\n    \n    // get list of qpool token addresses for staking\n    \n    function getTokens() public view returns (address[] memory) {\n        return stakingTokens;\n    }\n\n    ///// permissionless functions\n    \n    // call notifyRewardAmount for all staking tokens.\n    function notifyRewardAmounts() public {\n        require(stakingTokens.length > 0, 'StakingRewardsFactory::notifyRewardAmounts: called before any deploys');\n        for (uint i = 0; i < stakingTokens.length; i++) {\n            notifyRewardAmount(stakingTokens[i]);\n        }\n    }\n\n    // notify reward amount for an individual staking token.\n    // this is a fallback in case the notifyRewardAmounts costs too much gas to call for all contracts\n    function notifyRewardAmount(address stakingToken) public {\n        require(block.timestamp >= stakingRewardsGenesis, 'StakingRewardsFactory::notifyRewardAmount: not ready');\n\n        StakingRewardsInfo storage info = stakingRewardsInfoByStakingToken[stakingToken];\n        require(info.stakingRewards != address(0), 'StakingRewardsFactory::notifyRewardAmount: not deployed');\n\n        if (info.rewardAmount > 0) {\n            uint rewardAmount = info.rewardAmount;\n            info.rewardAmount = 0;\n\n            require(\n                IERC20(rewardsToken).transfer(info.stakingRewards, rewardAmount),\n                'StakingRewardsFactory::notifyRewardAmount: transfer failed'\n            );\n            QPoolRewards(info.stakingRewards).notifyRewardAmount(rewardAmount);\n        }\n    }\n}",
  "sourcePath": "/Users/dperk6/qfinance/qfinance-token/contracts/QPoolStakingFactory.sol",
  "compiler": {
    "name": "solc",
    "version": "0.6.12+commit.27d51765.Emscripten.clang"
  },
  "schemaVersion": "3.3.0",
  "updatedAt": "2020-12-14T02:00:02.224Z",
  "networkType": "ethereum",
  "devdoc": {
    "kind": "dev",
    "methods": {
      "owner()": {
        "details": "Returns the address of the current owner."
      },
      "renounceOwnership()": {
        "details": "Leaves the contract without owner. It will not be possible to call `onlyOwner` functions anymore. Can only be called by the current owner. NOTE: Renouncing ownership will leave the contract without an owner, thereby removing any functionality that is only available to the owner."
      },
      "transferOwnership(address)": {
        "details": "Transfers ownership of the contract to a new account (`newOwner`). Can only be called by the current owner."
      }
    },
    "version": 1
  },
  "userdoc": {
    "kind": "user",
    "methods": {},
    "version": 1
  }
}